:100000000C0000020000000000000A11B100002AEC
:10001000008000200020251500002D3E00002D3E10
:100020000000034885460CF0C0F8004800475B3EDE
:10003000000000200020014B9D46014800470020A1
:10004000002011150000014880F308887047002047
:10005000002010B5044607F085F972B6204603F07B
:10006000BCF8002862B6F6D010BD70B504000BD005
:10007000002002F030FF0BF091FB0546214602F014
:100080001DFF2846FFF7E5FF31480078002801D022
:100090000BF000002B0080E2F907F0BEF82E4900BB
:1000A00020087001F071FA01F042FA07F07FF82A97
:1000B00048008806F073FC70BD70B5284C207800AD
:1000C0002806D10120207003F0CFFC012002F005AA
:1000D000FF03F0E0F82348016904229143016172B3
:1000E000B606F005F80BF054FAC00762B6F7D10374
:1000F000F0DFF81C4880787D21C900484307F025CF
:10010000F91A4D2878002803D006F048FC00202872
:100110007007F0B5F80BF000002C008044FB05469A
:10012000FF355035284606F06CFF002802D02846DF
:10013000FFF794FF0F4E00253078002804D025707B
:10014000FFF798FF357070BD02F0C5FE0028FAD1A8
:100150002570FFF78FFF70BD3D0200204401002095
:100160004C0200208400002000ED00E020F00000A0
:100170004C0100204B010020F7B5E0482021067B10
:10018000447B0079DE4FC140A24213D9DB482023D3
:10019000807BC340B24201D919460BE000002D001C
:1001A000803879002808D00D46101B591B48433170
:1001B0001B0BF0A4FF4019C1B2D34840784007039D
:1001C000D53879002800D0890801984843420901B0
:1001D00098821A009848431018FEBD0128CA4ACBDD
:1001E0004801D0001D00E0143050600368C4490B82
:1001F0006043684B6083688B60037B0B73437B4B6E
:1002000073807B8873002010707047BF494A780262
:10021000434A707047BC494A7882434A707047F03D
:10022000B500002E0080B74891B00068B8490E9024
:1002300048780027C207D20F80070F92C20F0C9296
:100240000E98F02210400F9A3D4610430C9A10432E
:1002500075D0B04840780890AC480D9010E003206D
:100260000690AC4829010C18A74A14217943DC3ABE
:10027000637B88180490407C834209D07F1CFFB2C6
:10028000A3480078874202D208988542E7D333E139
:10029000A088E2880292A04A267A1279102A11D008
:1002A00000280DD09E4A00002F0080431C12689A3F
:1002B0004208D0029A002A05D09A4A5368029A52FC
:1002C0001C934201D100220692904ADC3A51580A0E
:1002D00091049949680191049989680B91617A099F
:1002E000020791A17A090205910B21615603910A37
:1002F000994909411A00D5494200910199029A4948
:1003000009511A00D54942009A8A4200D200910E42
:1003100099090608D50699C90705D0009A0A99FFD8
:10032000F732FF099004E04001099000003000809E
:100330000E98000609D50698800706D5009A0199FF
:100340000298FFF723FF02E0DFE0029840010E99D8
:10035000890607D56E490B9A097A13468B409A1A7B
:100360009619CE400E9949062CD56F490A9B0A680A
:1003700049685201490140398C460999403A9942ED
:1003800005D9914203D8102901D9103907E09942C3
:1003900005D2402903D3103A914200D2103109917D
:1003A00001996246884205D9904203D8102801D9A4
:1003B0000000310080103807E0884205D240280351
:1003C000D3103A904200D210300E99C90607D50BCF
:1003D000998E4201D9761E02E08E4200D2761C0F21
:1003E00099002931D004990D9B079A89899B7996A8
:1003F000460A469C469A40531A72469A186346DA51
:10040000409446521A00D552420D9B1212DB79934A
:100410004200D26146079104990D9B059AC9899BB8
:100420007996460A469C469A40531A72469A186331
:1004300046DA4094460000320080521A00D55242FB
:100440000D9B1212DB79934200D2614605910C9903
:10045000002919D0049B102159560D9B039A1B7A31
:1004600096460A469C469A40531A72469A18634624
:100470001A4152B29446521A00D552420D9B5B7AF1
:10048000934200D26146039109991422C902090CD2
:10049000A180C102090CE18026720799090A6172E4
:1004A0000599090AA1720399E172294651431A4A32
:1004B000099BDC3A535089188E6000003300804855
:1004C00060079888810598C88103980874607B6DDF
:1004D0001C4874EDB2DEE61548290108188188141D
:1004E000224B01294651430D4ADC3A5350C38889B7
:1004F000185B014B60027A8A60427B4A74427A122E
:10050000028A81827A1202CA81C07A6D1C0874ED57
:10051000B208988542DFD30349087011B0F0BD18C6
:10052000040020D8F0000088000020B8F000000887
:100530001800202C030020BC1700200246002000D9
:10054000003400800121C90300E049089142FCD831
:1005500006E0401803464343934200D9401A490835
:100560000029F6D170470000FC4900200870704750
:10057000FA4800787047FA4800210068017041800D
:10058000704730B5F64B1968097881420BD830BDF9
:10059000C200401C050652186D0D69188D68496827
:1005A0009560C0B2516019680A788242F0D8087824
:1005B000401E087030BD70B5E94E33681A78102AB5
:1005C00020D2E84C0000350080D2006568E74CD2AC
:1005D00018247D4C43241864002C5FD480326813A7
:1005E00078DB009A18107130680278D20010184138
:1005F0007130680221415EA14200DA4480017849ED
:100600001C0170491EC8B270BD102070BDF0B5004D
:100610002124E0481C40B286461AE00B065B0D9D83
:10062000180606760DB446B21806230626EB5E962B
:100630005FB3420BDD9768AC686B685268AF606A65
:1006400060C84D62462D68521900003600809460E3
:100650005360401C40B2C44C226813788342DFDCF4
:100660007146C14A1068007840B2401E8842D3DC0F
:10067000F0BDF0B5002124E0481C40B286461AE0E7
:100680000B065B0D9D180606760DB446B2180623C0
:100690000626EB5E965FB3420BDA9768AC686B6830
:1006A0005268AF606A60B04D62462D68521994601E
:1006B0005360401C40B2AC4C226813788342DFDCAC
:1006C0007146A94A1068007840B2401E8842000076
:1006D000370080D3DCF0BDF0B5A54B06461C681092
:1006E00020002225780BE0D3001B191F79B74204A4
:1006F000D15B798B4201D11046F0BD521CD2B2952C
:1007000042F1D8F0BD30B59948984C03681878206C
:1007100070002009E0C100C918420012190D7915B6
:10072000714979401C5171C0B219788142F2D830B8
:10073000BDF0B50024904F059E002803D03D7D6D8F
:100740001E854200D10124002903D0787D401E88F7
:100750004200D10000380080641C7343234193425F
:1007600001DD0120F0BD0020F0BDF7B5074684484B
:10077000012400680D4626468047002856D00BF01D
:1007800095FC01467D48807E002822D00024224628
:100790008F4201D9781A00E00020784B7F181B7D2A
:1007A000C0B2BB4201D93B4600E05B1EDBB29C46B7
:1007B000714BDF6807E04300FB5E002B00DC002389
:1007C0009A18401CC0B26045F5D90298824200DBFD
:1007D00001246A4AD07E0028000039008028D00019
:1007E00026137D30468D4201D95B195B1ADBB29E20
:1007F00046537D6F189C465B1E127DBB4202DD5244
:1008000019511802E061465118491E5C4ACBB27179
:1008100046D56807E04A00AA5E002A00DC002210E4
:1008200018491CC9B29942F5D90299884200DB01E6
:1008300026344201D00020FEBD0120FEBDFFB5835D
:10084000B00C9FFFF7A4FE4E494F4E487D401EC09E
:10085000B20190087D401EC0B20290BCE000003A98
:1008600000800E9DB4E0464A761CB6B25068710016
:10087000415E039B99427EDB029A0024954201D29D
:10088000012200E000229446019A974224D23D4A78
:100890006346127D9219521C92B2002B06D053006F
:1008A000C45E8C4267DC002C00DC0024521E92B235
:1008B0005300C35E8B425EDC002B00DC0023521E23
:1008C0001C1992B2002D07D05200825E8A427DDC54
:1008D000002A00DC002214196246002A09D0721C8A
:1008E000120400003B0080D20B825E8A4270DC0062
:1008F0002A00DC00221419002D09D0721E1204D225
:100900000B825E8A4264DA002A00DC00221419009D
:100910002F25D01D4A127DB21A521C93B262460096
:100920002A07D05A00825E8A4252DA002A00DC008E
:100930002214195B1E9BB25A00825E8A4248DA007A
:100940002A00DC002214195B1E9AB2002D07D05237
:1009500000805E88423CDA002800DC002004190692
:1009600098002827D0394600003C00802846049A89
:10097000FFF705FF00282ED10448416804480DE028
:1009800029E000002804002018030020E4170020BC
:10099000BC1700202C030020FFFF0000007D039BFC
:1009A000784340194000085E3946021905980090C6
:1009B0002846FFF7CAFE00280DD139462846FFF722
:1009C0000EFE10280DD0C14800680178491E0906A6
:1009D000490D081884606D1CEDB20F98854200D84F
:1009E00046E77F1CFFB20D98874200D800003D000B
:1009F000803EE7FFF71FFE07B0F0BD7FB5B54E3470
:100A00007D641EE5B2747D0026641EE4B200960289
:100A10009603950194FFF71CFF7FBDF8B5AC4D0719
:100A20004628680E460078401E44B214E02006298D
:100A300068400D40180621415E82683B468A184195
:100A40007900790096FFF783FE002802D0E0B2FF1C
:100A5000F7AEFD641E64B2002CE8DAF8BD70B59CF8
:100A60004D064628680078401E44B20FE020062953
:100A70006800003E0080400D4318597918793246CD
:100A8000FFF782FE002802D0E0B2FFF793FD641E5C
:100A900064B2002CEDDA70BD70B58E4E054630683C
:100AA0000078401E44B20CE020063168400D411829
:100AB0000620085EA84202DAE0B2FFF77BFD641E62
:100AC00064B2002CF0DA70BDF0B5C2008248062492
:100AD0000068814E101803794279045F8568002010
:100AE000002B03D0377D7F1E9F4200D10120002ABA
:100AF00003D0737D5B1E00003F0080934200D14015
:100B00001C4C430441AC4201DD0120F0BD0020F04B
:100B1000BD30B50546714800680078401E44B20AF1
:100B2000E0E0B22946FFF7D2FF002802D0E0B2FF92
:100B3000F743FD641E64B2002CF2DA30BDF0B58ECE
:100B400046664B014601221B680020C900CB186491
:100B500049944602460F780FE0540064181D792628
:100B600079AD1B6D1C022D05D85D7964792C1B6451
:100B70001C022C0BD9521CD2B297420000400080BC
:100B8000EDD86146002904D00621595E714500DA8E
:100B90000120F0BD30B50546514853490068097839
:100BA000007888420FD9401E44B20AE0E0B22946DC
:100BB000FFF7C7FF002802D0E0B2FFF700FD641E78
:100BC00064B2002CF2DA30BDF0B50146CA004449E7
:100BD00000200968054651180A7996464A79414924
:100BE000D21E097D8C46521C19D43E49497D914242
:100BF00015DD714663463D4E891E53435C18766889
:100C000000004100800023002906DB8C4504DD67DD
:100C100000F75F002F00DDC019641C491C5B1C0538
:100C20002BF1DB6D1C052DE0DBF0BDFFB5844631FB
:100C30004A00018018407B83B085062A48AD0E002B
:100C400068E9000190081801790291836810460054
:100C50009340782E460021864618E0614514D00A5C
:100C6000011018407B8206920E0198D400201807CC
:100C70007984680298C71B00D57F42049887420395
:100C8000DAA34201DA000042008023461546491CDF
:100C9000C9B219488E45E3D8B5420AD005990098E3
:100CA000484306995943884201DA0420B0E60220FD
:100CB000AEE60020ACE670B50C4900220C68217845
:100CC0004DB208E00B065B0D1E190623F35E83424E
:100CD00001DD521C52B2491E49B20029F2DAAA4281
:100CE00001D1012070BD002070BD18030020BC1789
:100CF000002028040020E417002008180020CD4818
:100D0000002101704170CC48CB4A000043008003B1
:100D100069417D007D121F002B02D01170507001BF
:100D2000E010705170C74948798B79984203D9C057
:100D3000B2DBB2C01A00E0C0B2D070087A4B7A9829
:100D40004203D9C0B2D9B2401A00E0C0B29070706C
:100D500047F0B5BA4989B0087D07904E7D401E0620
:100D600096B949844603C90025761E0490002000E8
:100D7000950395019502950591024608902BE00098
:100D80002125E0B1486B0040680224C05EAD4B00F5
:100D9000004400801C5FA0421ADB002053189E46CE
:100DA0004DE000284BD001284BD002284ED063469E
:100DB0005B1A9B18440004AF3F5B9F4205D904AF08
:100DC0003B536B461A5302AB1953401C0428E8D31B
:100DD0006D1C491C07988842D6D8521C0698904230
:100DE000D0D8410868460088814225D907986A46CC
:100DF0001289400890421FD96A465288B21A91421D
:100E00001AD96A4653896246D21A904214D96A4660
:100E10009288B21A000045008091420FD96A46922A
:100E20008990420BD96A46D288914207D96946CA4D
:100E3000896146891A884201D901200890089809D9
:100E4000B0F0BD7346B8E76346B41A5B1AE318B353
:100E5000E7B31A5B18B0E7F0B59C46034600208E56
:100E600046064665460446059F03E06900C9190C1D
:100E7000704C706D1EF9D200241DE0002E0BD06561
:100E8000005D5F954213DB4500ED1929462039CD01
:100E90007F6D1CCD770EE0650000004600805D5F31
:100EA00095420ADB401C01264100C91920398C7784
:100EB0003546F1E70026604502D0641C7445DFD357
:100EC000F0BDF0B5A1B010A904A800F08AF81EAFDB
:100ED0005E4E5F4D00970222361FAA5E04233178D2
:100EE00004A8FFF7BBFF03901CA800900222AA5E93
:100EF0000423717810A8FFF7B1FF02900024039833
:100F000003E04100C91949780C19401EF9D20027A5
:100F10001CA9029803E0420052185278D719000029
:100F2000470080401EF9D249480078012807D002C6
:100F30002815D06E79002803D0012801D011E0F6E1
:100F400078434900200870009701962A79214602CB
:100F50009B039800F037F8002803D0012115E0B674
:100F60007805E03A480078002801D002280FD137F0
:100F7000490020087001960094EA793946039B02E3
:100F80009800F020F8002802D00221304801702F8C
:100F90004E00207070A87AA04205D8E87AB84202C4
:100FA000D8FFF70000480080E0FE7070002021B0FC
:100FB000F0BD2A480078002800D087E77047254810
:100FC0004078704723480078704730B5039D049CF3
:100FD000012809D8022907D3914205D8022B03D84A
:100FE000AC4201D8012030BD002030BDF8B51A4F09
:100FF00000243A69002A02D006460D4601E00E465A
:1010000005462E2128460BF010F92E2130460BF014
:101010000CF9002218E00021570010E0114863008D
:101020004068C05E4B009C460000490080EB5E8338
:101030004201DA6346E852F35F834200DAF0536418
:101040001C491C0648007D8842EAD8521C034841CE
:101050007D9142E2D8F8BD000094000020BC17004A
:101060002054F100004CD70000E41700200B461874
:10107000214A43111810B5182218460BF0BFF8107A
:10108000BDF0B5FD4E0B24770C0CE06500435B5BB7
:101090001A53431B13B34201DA334602E0BB42004A
:1010A000DD3B464353641EF0D2F0BDFFB500004A5D
:1010B0000080002189B0F248019104910391007DE4
:1010C0000690F0480D228256009214980C46C207F2
:1010D000EE488E4640690B460F468C46029007D07C
:1010E0000098002804D00298002801D0012000E0D8
:1010F000002005901398002877D01498C00774D06A
:101100000B222FE00C98805600282BDB069E129DA8
:10111000754340190A9D40002E5E0B9D285E5500C8
:10112000361A0998405F801B051E00DA4542139E5F
:10113000B54200004B008017DA189DAA4208D27F02
:101140001C2418002810DA049D86446D1C04950B9D
:10115000E065466D1C1B18AC46002805DA039D6D42
:101160001C0395019D28180190521ECDD26246BAEB
:10117000185500C74AE018555F764668437D00550C
:101180005F001365432C13049D6D00555F75436626
:10119000467600965F2D135E433313039E760092CE
:1011A0005F019E72431213002800DA401C002C00DD
:1011B000DA641C002B00DA00004C00805B1C521C1F
:1011C00001926D1C059AAE46002A20D0029A002199
:1011D0005156002901DB0A4600E04A42009DAA421E
:1011E00000D10021002806DD00290DDBA9420CDA20
:1011F000491C0AE00BE0002806DA002904DC6842FA
:10120000814202DD491E00E000210298017015981C
:10121000401C0B26159079E00C988057002875DB50
:10122000069D129A6A43801840000A9A0790125E3F
:10123000750094460B9A105E6246121A00004D002B
:1012400080049208900998405F149D0390ED071E5A
:10125000D0189DAE4202D22546774601E0019F1D7F
:10126000460297904202DB471B974204DB90420400
:10127000DC471B974201DD104609E0029FEF1B038C
:101280002F04DD904202DC029A801A00E0401B1419
:101290009A52070FD56246821A00D55242169DAA6D
:1012A0004208DA159D0122AA40521E65466A431083
:1012B00018159A1041059A002A0DD0009A914204FF
:1012C000D100004E0080039A824207DD401C05E0F9
:1012D000D14203D1039A824200DA401E6D4FFF4390
:1012E0003A46B84202DCFA43904200DA1046089AC5
:1012F00065461218521BBA4201DD3A4603E0644DBE
:10130000AA4202DA2A46049880180B9F079D7A5356
:101310000A9D079AA852761E83D20DB0F0BDFFB584
:1013200087B094468E4610A877C80B2706976F465D
:1013300077C7624671460798FFF7C4FE0BB0F0BD51
:1013400010B5002807D000004F0080022809D00106
:10135000280DD1524910221C3906E0504910223C78
:101360003902E04E4910222C3950480AF056FF103D
:10137000BD70B500F040FD4A4D0126A878484C00EC
:101380002822D1FFF7DFFF494948480A8802824AEC
:101390008842828A888282CA88C28209890183211E
:1013A0004620390A7E82764A7EC2768A7E0277C9D4
:1013B0007E4177E189C183218A0184618A4184A1C8
:1013C0008A8184E07D6870AE7034480000500080EF
:1013D000C17E002904D0817E002901D0032005E0D0
:1013E000807E002801D02E7001E002202870324952
:1013F000002088604860607EC007C00F687270BDC2
:101400002C492B4A002804D0022801D14889108297
:1014100070470888FBE7F0B5234800228271407AC4
:101420001146002823D0254B1C241B781A275B1C4F
:101430005E081C4B1A481C5FDF5F34413741008B4C
:101440001F4D7F4208E04600AE5FB44201DA491CFE
:10145000000051008002E0B74200DD521C401EF443
:10146000D2D87F884205D2987F904202D20F48019D
:10147000218171F0BDF3B5144891B00E46057E5F31
:10148000E012492820684309181A310C220DA80AD5
:10149000F0C9FE284604F02DF81090119C4EE00093
:1014A000000080FFFFBC170020A0F10000980000A2
:1014B0002054D700009E0C0020C40C0020C418004B
:1014C000208001002062070020ECF10000E8F2001B
:1014D00000F94FFA49000052008038780978411A23
:1014E000A14201DD224603E0F749497D401A021975
:1014F00007A91098FFF7D1FDF44800210268F348CE
:10150000415E07A8FFF7D3FD3878F1496843091910
:101510004118F0480B234161C2680620105E97789D
:101520000397002104AF0BC71088D1890191E849C6
:1015300002900DABE94A0094303107A8FFF7CCFDCB
:10154000641CB442C7DD6D1E9DD2FFF769FFE149FF
:101550000020486113B0F0BDDB480000530080411B
:101560007D491E00208BE7F3B5DE498DB0032809C5
:10157000D00A46557E012808D0887E2C462D186D4D
:101580001E002632E00024CD7EF9E70024F7E72292
:101590004607A90E98FFF783FDD34800210268D2C1
:1015A00048415E07A8FFF785FDCC48D04A183001B6
:1015B0001918384161282161435318C06808214136
:1015C0005EC2780B270392049106970596C94900DD
:1015D00088C98B01910009C14902901A33C64A009B
:1015E000005400800096903907A8FFF77AFD641C2C
:1015F000AC42CFD9BA4846610FB0F0BD10B5C04C6F
:10160000B84821460AF02FFEBC48214648300AF06F
:101610002AFEB448242148380AF025FEB94841681A
:1016200081600021416010BD70B503F06BFB03F0D9
:1016300041FE04F015F80028FBD0A94CB248E5683B
:10164000E060FFF78EFFE56070BD10B5FFF7ECFFBF
:10165000FFF7D4FF10BD10B54821A8480AF003FEDB
:10166000A0482421000055008024380AF0FEFD9D8A
:10167000480021C171017210BD70B59A4DA348ECAC
:1016800068E86003F045FD032003F098FE03F0EAEC
:10169000FF0028FBD09E4801680320FFF769FFEC9C
:1016A0006070BD10B5FFF7E8FFFFF7D7FF10BD4929
:1016B0001E425C521C42540029F9D17047FFB50DFF
:1016C00046924989B01C310A7A8C4953075B0F0353
:1016D00093897ED2080B071B0F0093D201039B094D
:1016E000090592002B0FD0009A0000560080521876
:1016F000D118491C06910099C918491C04917B49CD
:10170000483901910B99012905D00AE00099490057
:1017100006910021F2E770490A7D74494839511851
:10172000019104466843029094E001980099005D9D
:1017300088425BD3884215D102980B990019012980
:1017400002D12046684340196F4E2946684B4836FF
:1017500005E00C9A801A401E42009F5AB752491E5B
:1017600078D3F6E70699884241D203990029000010
:1017700057008071D00099694A411A490089184977
:1017800088079102990B9A0919012A02D121466909
:101790004349192E4625E00C9A5C4F891A491E4B85
:1017A00000544A9C46D25E4837FB5E9E46D21A13CE
:1017B0001E00DA5342059FBB4204DD3B461F27FF54
:1017C00001BB4211D1049B98420BD2079B4F4F5A49
:1017D0004301231201DB03D2181214483772446309
:1017E00046FA52761E38D3D6E70199009808556418
:1017F0001C32E00000580080029806190B9801285E
:1018000002D12046684346192F4623E00C98361A29
:101810000B98761E022810D14348006880470028A4
:1018200030484249007D04D04018C05D012804D8EA
:101830000BE04018C05D002807D0354970002E4BE2
:1018400048311A5A095A511A195231490020720066
:10185000483188527F1ED9D2019900200855641E54
:1018600000D367E772E5F0B5284889B0008A079091
:101870001C48204B067D407D0000590080009000F0
:1018800020039002902B480190012518785D57C0E5
:101890000703D031462648FFF714FF1748244C00B1
:1018A00078800705D510480099007D0019FFF709D9
:1018B000FF1E4800688047002808D010480F4924C0
:1018C00038059009482439007D401804E01848057F
:1018D000900548007D00190490009800997043918C
:1018E000E07B01002082010020BC170020B801002D
:1018F000209C0100204C0400209800002000005A89
:10190000008062070020ECF10000BC010020A00173
:101910000020E8F200009E0C0020B80900205602CA
:101920000000C418002084F10000F001002054D70A
:1019300000002C0300201A070020FF7F0000002376
:101940004A1B00D51A460692009A4B19521E934222
:1019500000DC1A469646344655E002465200FB4FDC
:10196000921EBA5E029B401E934200DD1A4602920E
:10197000F74A4700D25F019B934200DD1346019373
:10198000002A00005B008000DC0022039BD21803C9
:1019900092F14A5268D35F079A934236DDEF4A527A
:1019A000781207520F18D0ED4A5278002A14D0EC62
:1019B0004A5378002B10D11278002A0DD1EA4A122E
:1019C00079022A09D0022C20DDE44A203A127DD384
:1019D0001EA34201DCA24218DC0023621B00D51AC0
:1019E000466719731E9F4200DC3B469C4603E00598
:1019F0009F0023BB54521C6245F9DD069A03E004A4
:101A00009F0023BB54521C00005C00807245F9DD2E
:101A1000641EA7D2491E97D2D54B0299D548598149
:101A200042688260039A426001800199418018787F
:101A300002280BD0012811D0CA482038807D002808
:101A40000FD0731E02223046009903E000230122CA
:101A500031460098FFF744FE09B0F0BD731E002226
:101A6000F1E7731E002230460099FFF739FEEDE7DB
:101A7000F7B50446BA488CB02038408CBE4B09906C
:101A8000588A0790B7482038407A410700005D0027
:101A900080490FC008C00100910690D87EB5490169
:101AA00023CB56002105070593039100992D0F00C4
:101AB0000900291AD0291800980818401C01900024
:101AC000982818401C0890A7482038007D012A104B
:101AD000D0A24E243E3746243F401E0490A4480026
:101AE00068804700280ED0BE460DE06800019000D7
:101AF00020E8E79A4A9B49243A86182039243A87F5
:101B000018487DE9E7B646984802900D98641E2271
:101B10001800005E00809B495000974B095E01272A
:101B20005F71079B994238DD904B5B781B075B0F19
:101B300018D0029B5B78002B14D08D4F7B78002B44
:101B400010D13B78002B0DD18B4B1B79022B09D088
:101B5000022A22DD854B203B1F7DFB1E934201DCC8
:101B600097421ADC059A0023A21A00D51A460A9257
:101B7000059A049BA7189F4200DC3B46079A9C46A7
:101B80007E4F8B1A3A699B183B6100270A9A02E044
:101B900073469F54521C00005F00806245FADD02CC
:101BA0009A9278002A13D0754BDA78AA4208D900A5
:101BB0002906DD01220392734A483A1152019A32F2
:101BC000551A79002A03D0002901DA00223255097A
:101BD0009A5242914202DA694B0122DA71325DAACD
:101BE000422FD3AA4202D1674A483A29E0019B9A80
:101BF0004233D2009B002B24D0531B5F00644BFB6D
:101C0000185B880B93604B483B1B5E0A93CB1A9C76
:101C10004600D55B42069FBB4203DD0000600080AA
:101C20001F23DB019F4219D108998A420CD20B9ADB
:101C30006146514301220901D20389180B14534A0A
:101C40000A99483A59181152002C00D065E70398B8
:101C5000012802D14B490020C870EBE43555C5E797
:101C60004A4A483A135ACB1A49490B520021315576
:101C7000E9E7FEB53F4800232038017D0091407D13
:101C800001903D481D4680781C4607013D481E4690
:101C900003610372C3710078C0071ED033480099F6
:101CA00000006100802438FFF720FD78428646312D
:101CB000480099C06884460DE062464800105EB84E
:101CC0004203DD2D18761CF6B204E0704502DA1BE3
:101CD00018641CE4B20846491EC9B20028ECD12A97
:101CE000480078800724D5244821492038007D24E5
:101CF0003940180199FFF7F9FC784286461D4801E2
:101D000099C06884460FE0009862460818400010A9
:101D10005EB84203DD2D18761CF6B204E070450271
:101D2000DA1B18641C0000620080E4B20846491EF9
:101D3000C9B20028EAD1002B01DB184600E0584266
:101D40006900884207DD032C05D9002F03D00F4915
:101D5000C878401C01E00D490020C870002B00DA53
:101D60005B42AB421DDA6000B0421AD2002F18D09D
:101D7000012117E0000062070020E4170020DC17B3
:101D80000020C0F10000081800202C03002098005B
:101D90000020C41800209E0C0020B809002054D751
:101DA00000000021284801710446000063008020E3
:101DB00078C0071AD0002211460098FFF76AFE2368
:101DC0004A00210846D36806E042009A5E9142002C
:101DD000DA1146401CC0B2009A9042F5D31D4880EB
:101DE0008C884202DA207A401C2072207880071CFE
:101DF000D5012200990198FFF74CFE144A002108F2
:101E000046D36808E0009A821852009A5E91420018
:101E1000DA1146401CC0B2019A9042F3D30D4880BB
:101E20008C884202DA207A401C2072207803280035
:101E30000064008002D1207A4008207207480068C0
:101E40008047FEBD002800DC012001494870704732
:101E500098000020E4170020BC1700202C0300206D
:101E6000084A0949908F0880D08F4880104640303A
:101E700002888A804288CA8082880A81C088488114
:101E80007047000060F10000C40C0020F0B4304D39
:101E900020B420B420B420B420B420B420B420B4A2
:101EA00020B420B420B404B46A46121D02B41978D8
:101EB0000568ACB200006500802D0C4C434D431703
:101EC000683C44146057683D4455604568ACB22D89
:101ED0000C4C434D4397683C449460D7683D44D5CF
:101EE000608568ACB22D0C4C434D4317693C4414DB
:101EF0006157693D445561C568ACB22D0C4C434DEA
:101F00004397693C449461D7693D44D5610569AC08
:101F1000B22D0C4C434D43176A3C441462576A3D42
:101F20004455624569ACB24C43976A3C44946202A2
:101F3000BC18305B1C491EBBD100006600801046F7
:101F400004BC064B0168C9091180001D921C5B1E70
:101F5000F8D10BB0F0BC70470000000000000B008F
:101F60000000F0B5FC4C89B00020207002F0F7FEB4
:101F700003F0CDF903F0C8FA0028FBD0012020704F
:101F8000F648077E2EE0384603F0E8FA0646384663
:101F900028214843F249002440180790F14825467B
:101FA000C06806901AE01822314668460AF06FF9B8
:101FB0000B200CE007990A181A215156002900003D
:101FC00067008006DB43006A46D25A61184B000660
:101FD00099CA52401EF0D2E4481836007D04196DAB
:101FE0001CE3480078A842E0D87F1ECED209B0F0AA
:101FF000BDF0B587B003F0B9F81F2003F081FB03F3
:102000002003F009FA03F05BFB0028FBD0D948005D
:10201000240568D4486F46C668D148069019E01870
:1020200022294668460AF035F9214628225143CC38
:102030004A0B208A1808E013181A21595600290360
:10204000DB43000000680080FB5A49007352401EC9
:10205000F4D218350698641CC07EA042E2D807B0BE
:10206000F0BDC2488178002902D0C0692D30704788
:10207000C2487047BD488178002901D0C0697047C7
:10208000BE482D387047F0B50646B848BC4A0569C9
:1020900085B00121117081704169C1611F200090DC
:1020A0002C46B0482D342030039065E0002001908C
:1020B00003F05EF8009803F026FB032003F0AEF96E
:1020C00003F000FB0028FBD00000690080AB480053
:1020D0002100688446A448029031E00B222BE028BE
:1020E00020A24B4843C01883181A201856002822F3
:1020F000DB182753004F43DB199E466746FB5C5FA6
:102100001E7F2F02D22F5CBF1B05E01F46813F7E42
:102110002F02D22F5CBF192F54734663445B785F44
:102120001E7F2F02D2235C9B1B04E0813B7E2B028F
:10213000D2235C9B192354521ED1D20298491CC051
:102140007E8842CAD88B48827DFFF796FF00006ADE
:102150000080884F01467B79284600F0C4FB864802
:10216000827DFFF783FF01467B79204600F0BBFBB1
:102170000198401C019008289FD30098401E0090B1
:102180000398C1790098814295D97F490020087051
:1021900005B0F0BDFEB5774C0546266900967A4934
:1021A00001200870A0706069744FE0612D36B97D20
:1021B00000980AF08FF8B97D30460AF08BF8607904
:1021C00000F07AFBC4B267E06C4FB87D07E000997D
:1021D000009A00006B0080095C21431154315C219E
:1021E000433154401EF5D2BA7DFFF74BFF014662E2
:1021F000484379009800F079FBBA7DFFF739FF0179
:10220000465E484379304600F070FB02F0B8FF1F8D
:102210002003F080FA032003F008F903F05AFA00D3
:1022200028FBD0584800210068844651480190316D
:10223000E00B222BE028204F4B4843C01883181A8C
:10224000201856002822DB182753004F43DB199E25
:10225000466746FB5C802B00006C008002D2012D9B
:1022600004D007E0802B05D9002D03D1009F3B5CF3
:10227000A3433B54734663445B78802B02D2012D09
:1022800007D103E0802B04D9002D02D1335CA34396
:102290003354521ED1D20198491CC07E8842CAD8FC
:1022A0006408002C95D100203A49012D087003D014
:1022B000401EFFF7F2FEFEBD0120FAE7FFB5304CED
:1022C00083B001206070A0690D4620628026FF2245
:1022D000059909F0FDFF68000190294C00006D0090
:1022E0008032460599A06900F00FFB0398804701F2
:1022F00098E1684018002400902BE0069B00209C89
:10230000460725009F0E9A0AE05900795A0818914D
:102310004201D2052102E0914201D906218D435BA1
:102320001EF2D2614609F08AFF00020C992843018F
:102330002918D000020E99000C884204D21148805E
:1023400069015D71400155069841000098081864C4
:102350001C009005988442D0D37608C0D10948006B
:102360002100006E0080417088E6C1070D9AC90FF8
:102370001143E6D0012AE9D18007E2D5E6E77301EF
:102380000020ECF10000E8F20000C0000020BC17C3
:1023900000207B010020F001002040F800007601C1
:1023A0000020FFB581B00E46FD4801210A9F8170D3
:1023B0004169C1611D460399006909F095FF0B98B9
:1023C00000F084FAC4B229E0F54822460399006976
:1023D00000F09DFAF2480B9B4169039A006900F0F6
:1023E0008CFA0198804700006F0080ED490398CA7D
:1023F00068096912E0002D02D0012D0ED105E0839D
:10240000195B00D35ABB4208D904E083195B00D39F
:102410005ABB4202D20B5C63400B54401EEAD264AA
:1024200008002CD3D1DF4C0B9B039A616920690013
:10243000F066FA0020A070B7E670B5DA4CDB4861B0
:1024400089807C002800D00120D64D2870D84B18F8
:102450007800280DD0587800280AD0052006E00C16
:10246000224243D218928B914200DB000070008020
:102470001146401EF6D2607E081AC01EFF21FF28BA
:1024800000DB0846CC4E31784843642109F0F4FE65
:102490002871A089A17E401AC01EFF21FF2800DB01
:1024A0000846B1784843642109F0E6FE687170BDC2
:1024B000F0B5C24801240078BB4D85B0002803D098
:1024C0002878002800D100240127AF702869BC4E6D
:1024D000E861B37DFFF7E2FD6A79194609F002FF72
:1024E000B37DFFF7D2FD6A79194609F0FBFEB549C5
:1024F00000007100800020085EB0494979484332ED
:102500002109F0BCFE337D00B202900122002100BF
:10251000970194AE48FFF7DEFEA869694600780887
:1025200073A9490020085EA5494979484332210929
:10253000F0A5FE737D317D00B2029001220097016B
:1025400094A248FFF7C7FEA86969460078487399C6
:1025500048022203A97530FCF76DFE954F03214018
:102560003F7869890688439A4908612046FFF72326
:10257000FE9748796900007200800161B27DFFF723
:1025800092FD01468D481330FCF757FEB27DFFF7F0
:1025900081FD014689484030FCF74FFE0020A870BD
:1025A00000F0A7F908E610B58249002008708148BC
:1025B000807F01F0FBFEFFF780FF7F4801227C490E
:1025C0001230FCF73AFE00F094F910BDFFB5784FD9
:1025D00083B0B86800280ED00025049C05984443B9
:1025E000002D0AD00126BE703869F86121463A797B
:1025F00009F07DFE02E00125EFE700007300800096
:102600002677490020085E6F49097948433221093D
:10261000F03AFE00B2002102900096019103A80D4D
:10262000C8FFF75DFE049AB9690698FCF708FE003A
:102630002D2DD06A4D644E0020285E3179484332FA
:102640002109F021FE397900B20023019100902286
:102650004619460398FFF7B1FE224679690C98FCAB
:10266000F7EEFD0024BC70285F3179484332210920
:10267000F00AFE00B202900094019403A80DC80075
:10268000007400800021FFF72DFE049AB9690698B6
:10269000FCF7D8FD00F032F9FFE408B54D481823E7
:1026A000027D514801785148009044488068584361
:1026B0004E4B9B1EC0184E4BC3184E48FFF78BFF66
:1026C00008BD10B50446C00701D0FFF7E6FF60075C
:1026D00001D5FFF76DFF10BDF7B58AB0374D012664
:1026E00014466E7002A902462962182102A809F058
:1026F00003FEE00706D03C4802A902783148793051
:10270000FCF7A0FD00007500802E48EE7020300818
:1027100090417B2038407E081AC01EFF21FF280010
:10272000DB08462B4E31784843642109F0B1FDC7E0
:10273000B22D490020085E31794843322109F0A8C2
:10274000FD25492A4E0A7D317800B24A4300230014
:1027500090194601972848FFF735FEA00718D500C5
:10276000201D4B696903E00B9A0A54401C80B23269
:10277000781F7D7A438242F6D8E00705D03078FA98
:10278000B242431B48FCF760FD00007600800898C9
:102790001C49C08908800020E8706870E00701D0FB
:1027A00000F0B1F868690DB0F0BDF8B5124E6121C6
:1027B000B61E0D24C900B01C00F061FE31888842AD
:1027C00021D00020F8BDC00000200CF2000000F86D
:1027D000000060F00000D8F3000080010020BC176A
:1027E0000020A0010020AF33000000001F409E0128
:1027F00000207B01002002F6000079020000253352
:102800000000A801002054480178002904D00000ED
:102810007700804078002801D0062500E00125508F
:102820004F0BE01820684382194F48397810180080
:10283000F08BF8002801D1640864006D1EF1D24AC3
:102840004D3878297D4143B01C00F07EF800280106
:10285000D1640864000221454800F076F800280D94
:10286000D04348A97D623800F06FF8002806D03FB9
:1028700048A97D353800F068F8002801D10420848B
:10288000432046A1E73B498860704739488178007A
:102890002901D00000780080C06970473748704730
:1028A00035484178002901D0006A704780681821B6
:1028B00048433249891E40182C4940187047182156
:1028C00048432E49891E40182849401870472A4815
:1028D0004178002901D0006A704726487047264891
:1028E0004178002901D0006A70472248401C704797
:1028F00021490020085670471F48C078704741089A
:1029000001438808084301090143480848407047CB
:1029100008B56121C9001948000079008000F0B6AF
:10292000FD6946088016480222801EFCF797FC08C5
:10293000BD10B504E0845C9C4200DB1C468C545204
:102940001EF8D210BD02E0435C53404354491EFAC6
:10295000D2704704E0425C002A01D0012070474950
:102960001EF8D200207047000060F000007B0100DC
:102970002079020000BC17002075F80000C000009C
:102980002002F6000010B5810703D0800880000007
:102990001D80B2104B9A88824201D2002000007A3A
:1029A000008010BD19680C18101A1C609880084629
:1029B00010BD810703D080088000001D80B2064A48
:1029C0004B239188DB000918994201D900207047F8
:1029D00091801168081A10607047340300200000CD
:1029E0000000800801D0401EFDD17047EFF3108039
:1029F00072B6704780F31088704701225207102882
:102A000000D300BE80008218106CBFF3408F1164A9
:102A1000704770B50E460546032900D900BE102D3B
:102A200000D300007B008000BEA807C40EA41DFFD9
:102A3000F7DFFF0246A90814488900081801680357
:102A400023A3409943A6400E4306601046FFF7D4E7
:102A5000FFBFF3408F70BD02070D49120F01209098
:102A600040086070470A4902078031120F01209028
:102A7000400860704702070649120F012090400885
:102A800060704705490448C860704700E400E000F2
:102A9000E100E080E200E00400FA0500ED00E070F3
:102AA000B5012604460A4D00007C0080F60303E0D1
:102AB000E868FFF79BFFA41BB442F9D8A8686043FD
:102AC000FFF794FF70BD10B5024909784843FFF73E
:102AD0008DFF10BDE4000020FEE710B500200C4B78
:102AE0000C4A01E0042802D28100595800E00A494A
:102AF0008400401C11512028F4D3084901200860AB
:102B000000F00EF810BDFFF7E8FF00F00FFAFEE747
:102B100000150000000000202D3E000000001040C5
:102B200010B572B6EE211B480160992100007D00AE
:102B30008041601A49092088601A49194888600054
:102B4000F001F810BD70B50125174CAD04256017D4
:102B500049480701601649416100F084F8E103E14A
:102B60006061602560134A1160134810238360116F
:102B70004B8C1C40331C602024C460516011210127
:102B8000610E495960212141600C490A4A31318066
:102B90003211603021016070BD000011400010143E
:102BA00040760200000000144000000140020000D6
:102BB0008900007E00800000FFFF000101408002CC
:102BC000014001000080274A11547047264B10B580
:102BD0008200243B9A582433185CC9071368C90F34
:102BE00001248440A34381400B43136010BD1D4B5F
:102BF00010B58200243B9A582433185C49074300DF
:102C0000C0189368490F07248440A34381400B43B5
:102C1000936010BD144A8100243A51582432105C4C
:102C20004968C140C807C00F70470E4B10B58200FD
:102C3000243B9A58243300007F0080185CD36840FE
:102C40000003248440A34381400B43D36010BD069E
:102C50004A8100243A51582432125C0869012393B6
:102C60004018400861D040C0B270471801002001F0
:102C70004935208860704700FF014010B5054C20A1
:102C800078002803D1A01C00F006F82070014880CD
:102C90001C10BD2201002010B50E4A0C49002391E2
:102CA0006072B60121C907516051680029FCDB62DE
:102CB000B691680C0F0A2C07D101800000800080BB
:102CC000090C017151684905490D418001231846DD
:102CD00010BD0000B6D300000000104010B500F099
:102CE000CEF810BD03494A69012002434A610249F6
:102CF0004873704700001240D20C0020027810493F
:102D00004078002A09D04000086202224A624869DD
:102D1000302398431043486170474A6932239A43ED
:102D2000000102434A617047064A80008018016032
:102D300070470449800040180068C0B27047000026
:102D40000000810080000012400010124070B504A5
:102D5000460178EE20424D002928601CD0217904DC
:102D600020FFF738FF02210520FFF734FFE078004D
:102D70002834D000210420FFF730FF207903282FCA
:102D8000D00020686004210120FFF738FF042100F3
:102D900020FFF734FF70BD00210420FFF71BFF0167
:102DA000210520FFF717FFE078002815D000210447
:102DB00020FFF713FF77204002686001210846FFDB
:102DC000F71DFF012100008200800020FFF719FF9E
:102DD00006210220FFF715FF01210320DBE7012177
:102DE000E8E70121C9E79920686006210720FFF77D
:102DF00008FF06210846FFF704FFC6E7F0B51A49A9
:102E0000C2071A4B8A6801D01A4300E09A438A60CD
:102E10000021174F184C01238D00EA19158805422F
:102E2000656992781E4602D09640354301E096408F
:102E3000B5436561491C0429EEDBF0BD10B50621E0
:102E40000720FFF7DEFE012107200000830080FF3E
:102E5000F7C9FE10BD10B506210720FFF7D4FE000C
:102E6000210720FFF7BFFE10BD0000000011400049
:102E70000014400000000188D7000000101440102A
:102E8000B527484078C04300F03CF810BD10B500AD
:102E9000210420FFF7D6FE0420FFF7E3FE20484080
:102EA0001E0078002807D0FFF7EAFF1C48017804CD
:102EB00020FFF7A9FE10BD0121F9E7184A01785259
:102EC0001E012906D001231370154A1170407800A5
:102ED00000840080507070470023F7E710B5114858
:102EE000407800F011F810BD10B5FFF798FD0446CA
:102EF0000420FFF79EFE012141400420FFF775FEEC
:102F00002046FFF790FD10BD70B50446FFF787FD22
:102F10000546E1B20420FFF768FE2846FFF783FD6F
:102F200070BD00002B01002009490880704710B5D2
:102F300007490988084201D0FFF7D6FF10BD0448B1
:102F40000088002801D00020704701207047000051
:102F50002E0100200000850080194B1A4C0020191A
:102F60005C00290FD04A07520F521C0906C90E05F2
:102F7000D1072A03D91818007AE06103E0801840CD
:102F80001C8028ECD30F4A00200F4920328300CB4D
:102F900058934204D1800040184068206202E080CB
:102FA0001C1028F3D303200004012189074861077E
:102FB000490020086104F02EFF04F0C8FFFEE7007E
:102FC0000000F1FF0F00FF004000F2FF0F000001C2
:102FD0004010B541493F480A7800008600800270E1
:102FE000497841703E48001D00F098F93D4800F0D6
:102FF000DAF910BDFFB513468E46002628E03101F0
:1030000072468C180A2237465743FA1D217B815499
:103010003D4661880937C1557F1C090AC1552F46B5
:10302000A1880B37C1557F1C090AC1552946A779CC
:103030000D314754E779D21D8754227A8F1CC2552F
:10304000CF1C627A0835C255E17A761C4155F6B23A
:103050009E42D4D319460A225143C91D0170000073
:10306000870080090A4170012181700A99C17009A5
:103070000A017103991A4A4901194341715178496A
:103080001C51700B9A890111438171FFBD0422020A
:10309000700022427004228270C170704710480094
:1030A00078C007C00F704710B50D4A00281178038B
:1030B000D001200143117005E04808400010701055
:1030C000BD00F090F900F09EF90028F9D010BD1075
:1030D000B5FFF7F5FC10BD044870477047704730E6
:1030E000010020000088008098D70000ECD8000084
:1030F000C8D80000F149CA7D8B7D900040185B1E46
:10310000521C4068D2B28B75CA75032A01D30022C3
:10311000CA75704710B5FFF71CFF002801D0FFF7F4
:10312000BBFEE74800F0BBF9E64801690122120343
:103130009143016181690907FCD410BDF8B5E149EB
:103140000869C0044AD4DD4800270569002D02D073
:10315000002202610BE0D948827D002A3ED0C27D68
:1031600001279200121855680000890080027E3AFB
:103170004302766A78287812028618022E00D2025C
:1031800026D1488662022404E0295DA0B2FFF7E25E
:10319000FD641CB442F8D3CC4EFFF74DFC0446B09E
:1031A0006900071ED401200003F06031690143313A
:1031B00061284600F076F92046FFF741FC002F0910
:1031C000D0BF4C207E400840002076FFF795FF21BD
:1031D00068C9698847FFF7BFFE002801D0FFF78A5A
:1031E000FEF8BD2046FFF72BFCD6E7F8B500008AB5
:1031F0000080B64EB068C007C00F0090B0684008AD
:103200004000B060FFF71AFCF568F560F468F46000
:10321000FFF718FCAF492C430846A04303D16807C9
:1032200001D40D406C40B0688007FCD4A64F200547
:1032300002D53868C0688047A54800692040C004AE
:1032400001D5FFF76CFF81208000A04362D19F4829
:10325000446B8015FF3CFFF785FD0546FF200230DB
:10326000FFF780FD00022D18FF200330FFF77AFDE5
:10327000064600008B0080FF200430FFF775FD003C
:10328000023018022C48D3052D06D0012D29D0027A
:103290002D2AD0042D2CD03FE085B2290520460EE2
:1032A0000FECB2012E02D0082E05D035E0042833F1
:1032B000D33868C0682FE004282ED3012C2CD838CE
:1032C00068016920468847E8B2012801D1FFF72943
:1032D000FF3C77797F80208843304378777B48199B
:1032E0003004E03868006801E038684068386113ED
:1032F000E0062C11D3A41E00008C008084420ED363
:103300003A6811680B7C497C09025918814206D33E
:10331000397E022319433976B88290698047FFF7D6
:1033200017FF0098002807D06B48816801221143DD
:10333000816081688907FCD5F8BDF8B50446032093
:10334000FFF7BBFB644D6869400840006861FFF708
:10335000ADFD60492022091D5D4808F0F7FF5C487B
:10336000046068698021084368615B484900403017
:103370000161002646618661FF20A86200008D0081
:10338000805848E8623446471CA0B20021FFF7ECA1
:10339000FC641CBC42F8D30020C043E860524828BB
:1033A0006152490320FFF758FB01210320FFF7601A
:1033B000FB0320FFF78CFB0320FFF77AFB68690112
:1033C00021084368616E62F8BD70B505460026FFAE
:1033D000F73CFB04463F48817D03290DD2C27D891D
:1033E00018032900D3C91E890009184D60817D0189
:1033F00026491C8175FFF7AEFE2046FFF72AFB30F9
:103400004600008E008070BD10B5FFF721FB04461A
:103410003248807D002803D0FFF77BFEFFF79DFE3A
:103420002046FFF719FB10BD2C48807D002801D0F5
:103430000020704701207047F8B5274F0646387EB8
:10344000002581071CD5FD2108403876002406E0C0
:10345000E01DFB3080B2FFF78FFC3055641CB88A4A
:10346000A042F5D8FF200130FFF786FC0446FF207C
:103470000230FFF781FC00022018042800D101254A
:103480002846F8BD10B500008F0080FFF7E3FA155D
:103490004CA16801221143A160FFF7E0FAA0688007
:1034A00007FCD510BD10B5FFF7D5FA0E4CA1684941
:1034B000084900A160FFF7D2FAA0688007FCD41089
:1034C000BD10B50446FF210120FFF753FC21780011
:1034D00020FFF74FFC61780120FFF74BFC10BDE0A7
:1034E0000C0020C8D800000000124004060000FFB5
:1034F000010000050E0000FF44000010B5024A0064
:10350000F004F810BD0000FFFF00000000900080F4
:10351000F8B50E46074600240AE03D5D114628092D
:1035200000F00AF80146284600F006F80246641C3E
:10353000B442F2D31046F8BD0007000F0A0B50400A
:10354000034A4000105A0901484080B27047000009
:10355000EED80000A34901200871A349087000209B
:103560004880A2484078C207D20F06D0C006C017D4
:10357000401C02D09E48C07B4880704770479A49E3
:103580008880704798484088002800D00120704704
:10359000000091008030B50446974B002001465A48
:1035A0007808E00D01ED18AD7BA54201D1401CC0AB
:1035B000B2491CC9B28A42F4D830BD8D498A484903
:1035C0007800790822114202D1102800D10120028E
:1035D00022114202D1082800D10120042211420206
:1035E000D1022800D10120704710B504468348CA93
:1035F0000000681018224643796032137103795332
:10360000710622825E0846A266FDF7A8FBE06610FE
:10361000BD764A816E00009200809288914210DB54
:10362000764A938899420CDC527CC06E51430A2240
:103630005043814207DB6F484078410703D5C007FC
:1036400001D0002070470120704730B568490979E2
:10365000884216D0674B684C5A88521E12B25A8064
:10366000A57BD54203D1A07B5880012030BD1A78BC
:103670008A4200D118701A78824202D00020588005
:103680001970002030BDF7B55E489CB00068164642
:10369000057801200F46082900D100009300800220
:1036A00020854204D95648807B5349488010E00069
:1036B0002409E021466846FFF79CFF6846B04700B2
:1036C0002806D0641CE4B2AC42F3D338461FB0F0F5
:1036D000BD1C98FBE74748007901280DD1474802F7
:1036E000214078084208D048490020085E44490932
:1036F00089884201DA0120704700207047F0B5FF49
:10370000F761FF3D4C05466078C007C00F2AD039ED
:103710004F3B4E012D0DD10020FFF741FF00280047
:103720000094008008D060780221084202D1042170
:10373000084201D0F07B78800220385E34490028AE
:1037400006DD00228A5E33889A4201DA401E7880C4
:1037500060780222104208D0082D06D10020085EB1
:103760003189884201DB0120F0BD2846F0BD70B5EB
:10377000FFF72BFF224A04465078C007C00F38D00D
:10378000012C03D1FFF7A9FF002832D01F480068A1
:1037900001781A48002904D00221415E00290CDC7E
:1037A0000DE01B4B00009500800021595E83889935
:1037B0004207DA0221415E002901DA00214180043A
:1037C0007019E02546042C16D0082C14D002214193
:1037D0005E00290ADC5078810707D5C00705D00EA6
:1037E0004A08212046FFF756FF05462846FFF734D2
:1037F000FF002800D02C46204670BD00002C03009E
:103800002032010020DC170020E4F300000818003B
:103810002018030020C4180020FD48000070470055
:1038200000FD4800210170FD4A0000960080826082
:103830008170C1707047F0B5FC4AFA491468FB4AC0
:103840000D7D56890023098B491EA9420BD94F1BB8
:103850004A007F00A25EE75FD21B00D55242B2420F
:1038600001DD921BD3180029EED1EC49002802D1CA
:103870008868834200DA8B60F0BDFCB5EB49E94F04
:103880000D684C68EA4900203E7D4B8902469E4601
:103890008B8909889C46C90771D0398B491EB14272
:1038A0001ADD4B000193EF5E8B1B5B000093000061
:1038B000970080EB5EFB1A00D55B427746734501AB
:1038C000DDDB1B9A18019BE75E009BE35EFB1A00A1
:1038D000D55B426746634501DDDB1B18180029DF15
:1038E000D1D04B002499688A420EDA9978491CC9D4
:1038F000B299700A2913D9CF494D78002D0FD109FB
:103900007800290CD19A600AE0CA4DAD889C706D90
:1039100018954204DD0D01691A89180911996099F9
:10392000688A4201DD511A00E000211A780226015E
:1039300025002A000098008006D0012A1AD0022A09
:103940002DD0032A54D13CE0BB4A97888F4202DA3B
:10395000178987423CDC95888D4209DA11898142BA
:1039600006DA0320187042E01D705960DC7041E0F7
:103970005C603CE0B04A97888F4206DD1789874239
:1039800003DD1C70596033E033E094888C4204DA24
:103990001289824201DA1E702CE059602AE0A64AA0
:1039A00097888F4205DD1789874202DD1C705C60B5
:1039B0001EE094888C421DDA0000990080128982F2
:1039C000421ADD1D70EBE79D4A97888F4209DA178E
:1039D00089874206DDD878401CC0B2D8700A28C555
:1039E000D808E095888D4204DD1189814201DD1CF3
:1039F00070C0E7DC705C70FCBD904AD1885868816B
:103A00004201DD5D70FCBDD1888900814201DD5E2F
:103A100070FCBD03205870FCBD10B58A4C2368199A
:103A200078091A491ECA00411C0906490DC000C97F
:103A300018C018091D001D08F0A9FC206800009A94
:103A400000800178491E017010BDFEB57B4800243E
:103A5000067D407D02907A480088C0077DD074487A
:103A600040780028FAD0002580E02906490D091881
:103A7000019108794A79711E0092884201D2012190
:103A800000E000218C461146029B714309185B1E21
:103A90009A4221D28B195B1C6246002A06D0674AE3
:103AA0005F005268D25F002A00DA1419644A5F1E70
:103AB00052685B009B1ED35E002B02DA7B00D35E54
:103AC0001C1900009B0080002808D07B1E7F00BFCF
:103AD0001ED75F002F02DA5B00D25E141962460027
:103AE0002A07D0574B4A1C5B6852009A5E002A0096
:103AF000DA141900280AD0524A4B0052689B1ED390
:103B00005E4F1E002B02DA7B00D25E1419009A0071
:103B10002A21D08A1B521C6146002906D0494953EC
:103B2000004968C95E002900DA0C194549531E494D
:103B3000685200921E8A5E002A02DA5A008A5E14D7
:103B400019002808D05A0000009C0080921E8A5E4E
:103B5000581E002A02DA4000085E041901988068A5
:103B6000401000E066E06142884203DAE8B2FFF705
:103B70005BFF6D1E6D1C374F38680178A94200DD70
:103B800078E72E484078012854D900240DE020061B
:103B9000400D401881684A000621415E8A4203DADE
:103BA000E0B2FFF741FF641E641C39680E78A6423C
:103BB000EDDC27484278087882423BD0002E39D08D
:103BC00048798B68009000240D79204600009D0004
:103BD000800EE00206520D52185779BC46177992B2
:103BE000689A4204DD1346624604463D4600924010
:103BF0001C194A8642EDD80026174619E0A642163F
:103C0000D03106490D0818427901790098801A00D0
:103C1000D5404204280BDA681A00D5404204280631
:103C2000DAF0B2FFF703FFA64200D2641E761E76DA
:103C30001C38680178B142E1D8074800680078FE76
:103C4000BD38010020FFFFFF7FBC170020E41700F4
:103C50002000009E008058F400000818002018037F
:103C6000002006480078012803D0022801D0002057
:103C700070470120704701484078704700003801C4
:103C80000020F94A00211378F94A002B03D00028BC
:103C900001D0C30803D0002010700846704750724E
:103CA000012010700146F8E710B500F072FBEE4CF1
:103CB000E37CEF48EE4A017C012090720020002B4B
:103CC00002D0002902D102E0002900D19072E74918
:103CD00018314860087000009F00804870C87088E4
:103CE000700831486008704870C87088706078103B
:103CF000720120507010BDF0B5DE4D0020A9780093
:103D00002904D00021A9706971A971E970D94910FD
:103D1000310C78091D0B78E21A5142002A01DB169A
:103D20004600E00E46D24F7F7CBE4241DB002A00B7
:103D3000DA0A46CE49897C8A423ADCCD4F183739B7
:103D400078CA1C944234D8C91E8C4231DB3A1F1405
:103D5000460C342178CE1CB3422AD80000A0008043
:103D6000C91E8B4227DB111F49787B78C91A00D501
:103D7000494252786378C9B2D21A00D552426C795E
:103D800001260B1BF643D2B2B34214DBAB79D71A30
:103D9000B74210DBB74F3E7C8E4203D83E7C964242
:103DA00000D801208C4200D921466971934200D984
:103DB0001A46AA71F0BD0121E970F0BD30B5AE4CD4
:103DC0000120103423460833197822788D1CAA422A
:103DD0000BD8891E8A4208DB597862788B1C9A427C
:103DE0000000A1008003D8891E8A4200DB00203039
:103DF000BDA24918310A46083A486013780B705240
:103E0000784A700122CA700831486008460C3803AD
:103E1000780B7040784870CA707047FFB584B00066
:103E2000260D9D079C0E9F6419E4B20196029433FF
:103E3000463246B446009686460397069D079C3454
:103E4000E070460027C75F069887421CDBAF423D03
:103E5000460DDB07980027201A087001975F1CFFAA
:103E6000B2012600970000A20080032F0BD9042086
:103E700008B0F0BD019F002F05D15B1C0120491C3B
:103E8000DBB200260190521CD2B20CE00546674618
:103E9000944500D33A4694460022002E03D00026D3
:103EA000491C5B1CDBB27046801C641C8646E4B275
:103EB000029FBC42C7D30399604608700098D7E7B9
:103EC000F0B59FB000266F481896077D417D01919F
:103ED000807D1A906A480821415E3446009106218F
:103EE000415E1D91482106A808F00000A3008080D3
:103EF000FA002019900490059002900390624840C7
:103F000078002801D03D4609E05F48807A00280308
:103F1000D001983D46199001E0019D19975C49BD7B
:103F2000420AD106AA04E070000B5A761C1352F61E
:103F3000B21A988642F7D31BE03E4608E070006351
:103F400000641C0A5A06A8761CC252E4B2F6B21AE1
:103F5000988642F3D300200E4606AA07E04300F1FC
:103F60005A6300641C401CD152E4B2C0B2B8420093
:103F700000A40080F5D368461821415E0020144655
:103F800006E04200A25E8A4200DD1146401CC0B23B
:103F9000A842F6D33C4F78794843401102B20098CA
:103FA000824200DC02461BA80190002304A9009570
:103FB0002046FFF73AFF064634484078002804D0F0
:103FC000002E69D00A201FB0F0BD002E7DD06B00FE
:103FD000E05E294606E04A00A25E824200DD10460D
:103FE000491CC9B21A9A9142F5D339794143481113
:103FF00002B21D980000A50080824200DC02461932
:10400000981CA90090019118192B4602A9FFF70FDF
:10401000FF032807D05DD81E4B1033012E0FD002AE
:104020002E1DD056E06946087A897A421A521D0A36
:104030002A4FD840184008694608720120EBE70172
:104040002847D16846007C18706846007A58701876
:10405000A8007B987018A8007CD870012036E00C6E
:104060004C1434012802D0022819D032E06D4628C1
:104070007C1870297A597018AD0000A60080287B42
:1040800098702A7CDA706D466B7C23706170A0702A
:104090001DE068F4000044010020BC170020B809AE
:1040A000002017E06846017A407A0A1A121D082A91
:1040B00012D86D462A7C1A70597018AD297B9970F8
:1040C0002A7CDA706D466B7C23706070A170E270A0
:1040D0000220189018987BE7032079E7F8B5054689
:1040E000B24F0020F871FFF7F5FE064678783C469F
:1040F000183400280DD0A0780A2E03D0062800001E
:10410000A7008007D10020BDE0002803D10520389A
:104110007200207870F8BD022E01D90620A0703000
:104120004600F00DF9002801D00620A070A049102B
:1041300031012E0AD19F4BC8789A7A904205D888CF
:1041400078DA7A904201D8012000E00020022E1A8D
:10415000D197491031CA7896498B7A9A4213D893ED
:104160004ACB7A103292789A420DD8904A8B7A14C0
:1041700032D2789A4207D88D4AC97A143292788A14
:104180004201D80000A80080012100E00021A278AF
:10419000130008F082F90604205D7C8EA6C2002878
:1041A00005D00120A0702846FFF734FE0DE000295D
:1041B0000ED0787A80070BD50420A0702846FFF730
:1041C00029FE0120B8700020F87014203872A4E095
:1041D0000620A070A4E0002E0AD17A7AD20707D078
:1041E0000220A0703879002897D00020FD605EE0A2
:1041F0007A7A0346134210D06F48817EC9076168FE
:1042000004D0008B691A81420000A90080E2D8F82E
:10421000BD008B691A8142DDD8FFF7E6FD5FE0FF44
:10422000232D33002806D0900704D56068281A98FB
:1042300042D0D8F8BD0029CDD09007CBD5606828F2
:104240001A9842C7D82846FFF7E7FD0420A070015E
:1042500020B870F8BD002E0FD0002866D05749F85E
:10426000688A8A281A824260D8C98A81425DD3FF4F
:10427000F7BBFD00280AD058E05049F868C98A28E1
:104280001A8142E6D20020A070042010E00000AAAB
:1042900000800320A070F8BD002E08D0002847D071
:1042A0006068291A47488089814241D8F8BD0020BA
:1042B000A0700120F87101203871F8BD00298CD060
:1042C000FFF735FD002801D00520A0706068291A8D
:1042D0003C48C089814201D9012000E0002003212F
:1042E00079560843002800D077E71BE0002E08D05D
:1042F00000280BD0E078401CC0B2E0700A2817D22A
:10430000F8BD0020A0700220F871F8BD00290FD080
:1043100060680000AB0080291A2B48C089814209DF
:10432000D8FFF707FD002805D0A0780628EFD100B8
:104330002E02D003E0062000E00020A070012078CB
:104340007021484078387201203871B8700020F828
:1043500070F8BDF0B51D4907460D7D4B7D0A7C1BED
:104360004900204C780978002A01D0224601E00A51
:10437000462146134CA47A002C01D02C4601E01CA7
:10438000462B460F4E10363578954217D3A41A6443
:104390001EA54213DC75780000AC00808D4210D35E
:1043A0005B1A5B1E9D420CDC022F0BD1361D35784B
:1043B000954206D3A54204DC72788A4201D39A4220
:1043C00000DD0120F0BD00004401002068F4000081
:1043D000BC1700206C01002003498A780348027052
:1043E000C97841707047000068F400006C0100203B
:1043F000704710B5FE48C1680522D2051143C1605F
:10440000FC48016A102291430162410601610520C6
:10441000FEF7D1FBF8480721C07F49070000AD0037
:10442000804018F74988630020F649C043086000BF
:10443000228A60F5498A6008600620FEF798FB062C
:1044400020FEF786FB0520FEF792FB0520FEF78095
:10445000FB10BDF0B589B0242000256A46ED43006D
:10446000E01554401EFCD2E54BE84E203B587D9CA5
:104470007D02E0315C5054401C8442FAD800242173
:10448000461F7D16E0002006230E465E433318D5F6
:1044900056002D07DBDE48D55C05550020C043D013
:1044A000540000AE0080641C02E0401C0628F0D3DB
:1044B000491C062900D30021A742E6D809B0F0BD67
:1044C000D048D5492030C2880A8002894A80827A41
:1044D0000A71C07A48717047F8B5CF49C84AA03907
:1044E0000874C1000143803AD163CD4D01260322F7
:1044F000F6042C46CA491206770080340028086961
:104500000FD09043B20180180861FEF778FA0028B6
:104510000DD0686EB043384368666068B843304376
:104520000CE0904301220000AF00801206801808C2
:1045300061F1E7686EB843304368666068B043383D
:10454000436060F8BDAF48C038016901221206918E
:10455000430161B248012180380171014620390AC6
:10456000468032486E9060886E9061C8677047F8E8
:10457000B50E00A4490546487E8C7E097E02D00116
:104580002E12D110E0022902D0012906D00CE0033E
:1045900021284607F0F8FEC01E06E0A049A039C950
:1045A0008E691A081800E0E01D23210000B0008089
:1045B0000A1A002A00DC0022291A0D39914200DA79
:1045C0001146FF22F832914200DD1146FF2902DD3B
:1045D000CA1FF83A00E00022D21DFF2900DDFF21AA
:1045E000FF2D00D9FF25914BDF693F0A3F022F4382
:1045F000DF619F693F0A3F029F61002E33D0022E88
:1046000031D0586D050AE00F2D0200194010054306
:104610005D65DD6D641C2D0AE60F2D0234196410F2
:104620002543DD655D6F2D0A2D0205435D67D86F5B
:104630000000B10080000A00022043D867986E0095
:104640000A000208439866184680308468240A24C9
:10465000020C438460D96E090A09021143D966C16C
:1046600068090A09021143C160F8BD6F4CA03C24DF
:1046700079002C08D0002E06D1DC69240A2402DC43
:10468000619C692C439C615C6A240A240204435C9B
:1046900062DC6B240A24020443DC63186B000A000A
:1046A0000208431863986C000A0002084398645893
:1046B0006B000A00020000B2008010435863D86CFF
:1046C000000A00021043D864F8BD5849A039488652
:1046D000002154E75649584BA039097C8A009A5862
:1046E00042431046012900D150107047F8B50446E6
:1046F0001D4616460846FFF7EDFF02464D48006985
:104700004449C0390B69FF273F04BB4301272404F8
:104710003F04E41B23430B6109694303DC0F830758
:1047200000039B0FC00F640009045C43401C090E8A
:104730004443491C0C1B192021460000B300804152
:1047400043500307F02AFE30602002001BC00379AB
:1047500010401800142880F8BD3649354BA03908A0
:10476000762E49703B40391A46C98F1C32C0E7701B
:10477000B5304D0024A03DE8752979002905D028E1
:104780004620304078697F4843C0B2294B298F7258
:104790003B1A461A32FFF7ACFF2E23EB5EAB85A81F
:1047A0007C012809D0274902E042008A5E141940A2
:1047B0001EFAD26343D813A88570BD17484038004D
:1047C00000B400800069C002C00F7047F8B56420D3
:1047D000FEF7F4F9124C1D4B403C2078800701D4C1
:1047E0001B4800E01B481861FF20013058610B484E
:1047F00000224038026111490A601848164D0562CE
:10480000174D856211482568403805626568456224
:10481000A5688562FF2525E000000140C0001E401C
:104820000CF20000C0071E40C03F1E40C03F1F40AA
:104830006CF20000400F00201002002000001F401A
:1048400000141E400000B5008014DA0000B8F20029
:104850000040001E400101020001010800000107A4
:104860000800101E40272829000B3505634263FE0F
:104870004D85630125C563606908614A61E0690887
:1048800062206A0863FA49F9480861E069000A0889
:10489000D0208C81B2FF200002814202D0586910E2
:1048A0002101E05869022108435861F24E72767284
:1048B00070F570F14DA878B074022801D00328017A
:1048C000D10420B074ED4B00200000B600801A68BF
:1048D000596882184141E84880308262C162E748E5
:1048E000B17C4038007D0F46401E07F074FD401C2F
:1048F0007843E24FF072203FB87F3074F87DB07695
:10490000FFF763FFF076B8793077DB4869782030BD
:104910004170202933D0DB4931652978717700292E
:1049200000D00121C17000203071A08F3087B87C89
:10493000FFF725FFD04DA069403D2861F87CFFF7C7
:1049400013FF6069286100210620FEF7F8F80000D7
:10495000B7008002210520FEF7F4F8CC488168CC2E
:104960004A11438160CC498868120610438860C6AA
:1049700049A822A839C94807F054FD387E01280308
:10498000D012E0C1491031C9E77889F0860520C30B
:104990004B08E00C214143C918F28E898B8A4200F2
:1049A000D21146F186401EF4D27889FFF79AFEFFB5
:1049B000F7DDFDB87FFFF7A6FDFFF798FDFFF76273
:1049C000FDF8BD10B5AE4C6079002803D1FFF705A6
:1049D000FF01200000B800806071FFF728FD10BDC6
:1049E000B1480168490049080160704770B5062068
:1049F000FEF7D1F80520FEF7CEF8AB4CC0342068A6
:104A0000400040082060A04D0921603D286909064A
:104A1000084360600F21E868090508400121490545
:104A20004018400DFEF7E5F8286960609E4801686F
:104A300049004908016001680122120691430160A2
:104A400099484030016A890089080162002020618C
:104A5000206A1021084320620000B9008070BDF078
:104A6000B5059CC95C5C430902904BC91C4033D915
:104A7000620B218F4D00260DE05356002B07DBE320
:104A800018C35C1F041F430B015B195F6002E00B3E
:104A9000015B195E60491EEFD2F0BDF0B507467BA1
:104AA00048824D047B834887B08035016929634083
:104AB00069686381487449007D497B019041180011
:104AC00091FDF788FF0590FDF78DFF04900C2C1EDB
:104AD000D16E4900204039794AC97E08E00000BA09
:104AE0000080282343439E181823F3565B1C00D0F4
:104AF0000124401C8142F4D80C2C0BD10020A8606A
:104B0000E86001207049C0054863086305216948D1
:104B1000490781606D48C4636C483C30C01B046029
:104B20005B48203006908178491C81702038427C97
:104B3000002A0FD1417B837C614DC918CCB24473EC
:104B4000697DE418A14201D2C91A4173297D437BD2
:104B5000C91800914E48807C012807D0012000210F
:104B600007F00000BB008057FC04460D4600263BC2
:104B7000E00098811857480222405C5649C0004323
:104B8000185A60C01B4018426032E04D480099003E
:104B90007D8919081A5149095C4E48405C3D49031A
:104BA000908031886AC96A20402940084301D002B8
:104BB0002000E003200290521E0120002107F02B6C
:104BC000FC60406940084302D10124002501E02433
:104BD000196D4103984049C0004318029A5A60C0B9
:104BE0001B4018029A42600000BC0080761C2A48D4
:104BF000827C9642CCD301980090274C0698A26DF7
:104C000083781A3204990598FFF731FF2B4840301A
:104C1000C06A2A496C31C91B08600B20284A05E08C
:104C200001018B185B68C91B89184B60401EF7D2C5
:104C3000A17C607C491E884201DA401C00E0002013
:104C4000607407B0F0BD1D48016901221206514091
:104C50000161704719480069C00101D521487047BA
:104C60001348403070471549026880310000BD008C
:104C7000800A6342684A6318490422CA638A631837
:104C8000214156002934DB16480C22C90008182D92
:104C9000E0FF0F00001FDF000040001F4070010018
:104CA000202CF20000B0F20000B8D90000C03F1E76
:104CB0004002000004C03F1F4000141E4060F0008E
:104CC0000000001E4000041E403CF20000BC170023
:104CD00020E8F2000000101E40C00B1E406CF200E5
:104CE0000000081E40400F002000431F40426002A9
:104CF000600000BE00807047FE4AFE49136A0B63E5
:104D0000526A4A63FD49C86388637047F8B5012059
:104D1000FB4F40063860FFF7A2FFF94C1822E17BF9
:104D200025465143F84A20358A186978236DFDF7E6
:104D30008EF9E07B0026401CC0B2E073E17C884223
:104D400022D1A07B00282BD0E27A182042432046B3
:104D50008030EC49806807F076FBA07B2821401E5C
:104D6000C0B2A0734843E8494018A0650120FFF78E
:104D7000C3FFA06DFFF70000BF00807CFF207D41D6
:104D80001EA970E673A17C401A607366740420FF4C
:104D9000F793FED9482E708038026801210A430239
:104DA000608160F8BDB968012040068143B960D8D0
:104DB000498868D84A10408860D0488038016849DE
:104DC0000049080160CD4840300661016A10221197
:104DD0004301620168490049080160FFF742FF0989
:104DE000229201C94907F031FB0220A075FFF7327A
:104DF000FFF8BDC848C749C04308600000C0008034
:104E0000C24820300178491CC9B201704278BC48C0
:104E100080389142016801D2012200E00222114350
:104E20000160704770B50121B74849060160B74C71
:104E3000B34EA27B0025803E002A32D0FFF714FF3C
:104E40000146E27A1820424320468030806807F00D
:104E5000FFFAA07B2821401EC0B2A0734843AD4991
:104E60004018A0650120FFF74CFFA06DFFF705FF7C
:104E7000207D2146421E20318A70E573A17C401AB4
:104E80000000C10080607365740420FFF71AFEA360
:104E9000488168A34AD243114381603168012001EF
:104EA000433160B06070BD82688A43826030684080
:104EB0000040083060934840300561016A102211BB
:104EC00043016201684900490801600220A075FFA2
:104ED000F7C6FE70BD924810B5904AC04310608C72
:104EE00049884CC87B803C401CC0B2C873C97C88D0
:104EF000420BD1206802210843206090688849084D
:104F000040906006200000C20080FDF765FE10BDE5
:104F10000020FFF7D9FD206801210843206010BD63
:104F200010B50021FFF753FB10BD70B5FDF79DFDD7
:104F3000794C01281CD0608EFFF7EFFB7B49724A49
:104F4000486A403A1062207F704A00021060512285
:104F5000C868120690436C4A403210600D69A07E0A
:104F6000E37E51680903090F814207D9012106E058
:104F70006E486030407BFFF7D3FFDFE70021A17070
:104F8000012109058D430004D9070000C3008028D2
:104F900043C90A01435160106A0121084310625B52
:104FA0004980390869012212061040624B614A5A51
:104FB0006222790A23002A0ED0627F521E12040256
:104FC000431A430A615D490620FDF7CDFD5C4905A2
:104FD00020FDF7C9FD70BDE27D521E120402431A86
:104FE000430A6157490620FDF7BEFD5649EFE7F138
:104FF000B54A48002420304D4E0470308E0127FF02
:10500000075249C01908605149F06A0861404D00D3
:1050100000C400804035286A1021884328622F612F
:105020000520FDF704FE30464030C07FB91040181F
:1050300049498863009800282ED02868C0012CD5E3
:105040000B203469000604436C600F21F0680902EC
:105050000840FF30FF300230400AFDF7E8FD09212B
:1050600030690906084368600F21F06809030840A9
:10507000B90C4018400BFDF7DAFD6C600F21F068A9
:1050800009040840B90B4018400CFDF7D0FD0F2172
:10509000306909060000C50080084368606BE0289D
:1050A00068384328603C20FDF7C4FD286840004074
:1050B0000828600F21F068090508400121490540D2
:1050C00018400DFDF7B6FD29680122F0689207101F
:1050D00040384301432960A868C005FCD5114881C8
:1050E00078002943D0002181700B48403046680A7F
:1050F00049300A0002EE30403148600748803801EC
:1051000068394301601648FDF794FD034840304676
:10511000602CE000003CF200000000C6008080002F
:105120001E40C00B1E40C03F1F4070010020000DFC
:105130000020E8F20000C03F1E40FDFFFFFBCCF165
:105140000000090F252600101E40F95F0000175FC0
:105150000000D160000025600000800101400000D7
:105160000140C0071E40B80B00000520FDF764FD9C
:10517000641CA868C00701D1282CF6D9FE48016834
:1051800039430160FE49FC4C0C60FD4A2306136064
:105190008D6825438D609168194391600268000015
:1051A000C7008001210A4302608160F8BDF0B5129A
:1051B00078F24C1202D21C4034E2620B22F34E0011
:1051C000270DE09C56002C07DB0D5D045D240425B3
:1051D000431401A419656002E01401A41967605228
:1051E0001EEFD2F0BDFEB50121E7484906016082FD
:1051F000688A438260E149002040310863FFF74537
:10520000FDE34C1822217B514322468032D2688A2A
:1052100018A179002921D00B201CE0DD4B81005919
:10522000586D460000C800800AC901930091297892
:10523000AB7859182B795918AB7959188B0841005C
:1052400053546B78ED78EB186D466D79EB186D461D
:10525000ED79EB189B0889184B70401EE0D206E0F0
:10526000062102E08B00C558D550491EFAD2C44E23
:105270003068400040083060E07BE17C88422AD101
:10528000C64F092138690906BD4D0843C03568601D
:10529000F868F1000840012149054018400DFDF76C
:1052A000D0FC3869686028680000C9008040004070
:1052B00008286030680121090688433060B94960D8
:1052C0006D08610120A075002020702861286A10F7
:1052D0002108432862E06B8047FEBD207B401C20F4
:1052E000730220FFF724FD207B2821AF4E48438026
:1052F00019FFF7D9FCAA48217B2030407E88420262
:10530000D9FDF7AFFB01E0FDF7B4FB0546FCF79BC9
:10531000FF0746FCF7A1FF217B282251438B191A76
:10532000332A463946FFF747FF0120FFF70000CA3E
:1053300000806FFEFEBD964895490160984AD17B7A
:10534000491CD17391490A6802231A430A60816893
:105350008F4AD24311408160704770B59048914C9C
:10536000057E4034A0890121FFF745F98E48864A21
:10537000816A40321162E179844A0902491C803213
:1053800011605204C1689001114381437F48C030CD
:1053900001604168874B090C0904C9184160016A22
:1053A000490849000162784908696D1E10402A04C5
:1053B00002430000CB00800A2002430A6180497E3C
:1053C0004848627F490620FDF7E2FB7E490520FD43
:1053D000F7DEFB70BD70486E4901606C490A6802D7
:1053E000231A430A6081686A4AD24311408160707F
:1053F0004710B5012169484906016082688A4382E5
:10540000606348016849004908016060480021C0A4
:10541000300161016A1022114301620168490049AB
:105420000801605F4CE07B401CE073207900280E8F
:10543000D0FFF735FC21460000CC00802031644AC3
:105440004978236DFCF726FEFFF72CFC18226049F3
:1054500007F01CF8E06D804710BD10B5FFF77EFD2A
:105460005C480021016341635B490520FDF792FB25
:105470004D480079002803D158490620FDF78AFBE2
:1054800010BD30B543480069C40147480146054690
:1054900020318035836E426E002C04DA02240C71B8
:1054A000AB60C26730BD01240C71AA60C36730BD18
:1054B000FFB581B017460D46FFF7E3FF0000CD00B2
:1054C000803A4C0198A0652575677500266674A121
:1054D0007C0091681A6073781B06F0A0FF00994069
:1054E0001C4843E074A6752046E6736D1E20308587
:1054F000700A98A0730120FFF724FC0198FFF7DDE4
:10550000FB0420FFF7FCFA0120FFF78AFD05B0F04D
:10551000BD08B534480023427D2648521E20300085
:105520007E411E00912821484324494018283819FB
:1055300046FFF7C0FF08BDF8B51C4C0120207000E5
:10554000200000CE0080E073A0751B482030817ED3
:10555000E174407E2073206EE0630220FFF7F4FBCD
:10556000207B2821174D48434019FFF7A9FBFDF781
:105570008DFA0746FCF774FE0646FCF77AFE217B9F
:10558000282251434B191A333A463146FFF720FE81
:105590000B480169616508498969016127E00000DC
:1055A0001E4002000004C03F1E40C03F1F400004D8
:1055B0001E4070010020E8D90000CCF1000000007E
:1055C0001F40E8F200000000CF008011110000151C
:1055D0001D252600101E4005650000C36300000065
:1055E0000D0020C0071E40BB6500009F650000BC89
:1055F000170020A179002904D001690322920691A5
:105600004301610120FFF711FDF8BDF7490A46800B
:105610003ACB68D06E834200D1106FC8607047F8F3
:10562000B5F24C05460120803C20700026A675E6A8
:1056300073E06B2066FFF7E9FF032D01D1EC48E032
:1056400063E80731D0EB48407EE0740000D0008072
:1056500026730220FFF77DFB207B2821E74D48437E
:105660004019FFF732FBFDF70EFA0746FCF7FDFD88
:105670000646FCF703FE217B282251434B191A33BF
:105680003A463146FFF7A9FDDD4801696165DA490F
:10569000203989690161A179002904D001690322B7
:1056A0009206914301610120FFF7C2FCF8BDA807F3
:1056B000FCD5FFF748FFF8BD70B50546CC4C00207F
:1056C000803C0E46A075E0730120FFF742FB2820C6
:1056D0000000D100804643CA483018FFF7F8FA604E
:1056E0008E854202D02846FFF73DF80020FFF7A242
:1056F000FC70BDC548406AC007C00F7047BD49C8AF
:105700006808600869486008466038007901280424
:10571000D0BE484861886888617047BD48F9E77025
:10572000B5B44C803CA27D002A01D0FFF7E7FFFF13
:10573000F7E0FF0125002811D0607800280CD0FF89
:10574000F793F96420FDF782FAFEF7AFFEB1480146
:1057500022E06300200000D200806070A575104632
:1057600070BDFFF784F9A9488030016842061143F3
:10577000016001226570F1E7A049002801D0886925
:10578000704748697047F0B59E4D9FB0687D1D9089
:10579000287D994E1C90803EF47AA0481990B07CE8
:1057A000A0494200684606F080FEB07C9D49420058
:1057B0006846101806F079FE287E1A9084E01A9840
:1057C000FFF7DAFF1890002041E006201B9035E03B
:1057D000062148431B99401888490000D300801EC9
:1057E000908039887C29E085498039897C4218522B
:1057F0001E00231D4613E006261E9F4E43F619B7D2
:1058000000189EF7596E46BC465700F65F6746BFC4
:10581000B27743FB1867463F0C77437D19521E4908
:105820001EE9D25900EA131204090C0A4306211E8C
:105830009B4143C9188B001999CA50401ED3D21BF3
:1058400098401E1B90401C7046C4D16C4980398919
:105850007C40188646A042BADB694E0025803E0097
:1058600000D400801DE0B07C201AA84206DD18207C
:105870001999684341186E48425D08E0182019994B
:10588000684341181C98201A2A1A6948825C1D989E
:10589000101A18225043189A8018182206F00AFE8F
:1058A0006D1CA542DFDB1C98651E271A0CE0E81B67
:1058B000182148431899189A4118182068438018ED
:1058C000182206F0F7FD6D1EB07C201AA842EEDD0E
:1058D0001A98401E1A90401C00D075E71FB0F0BD0A
:1058E00070B5FFF70000D5008024FF0446022810A1
:1058F000D145022846FDF7E5FB434C803CA07C01E6
:105900002801D0FFF747FF0120A07504462846FD77
:10591000F7D8FB204670BD3C498039002801D0C82B
:105920006370474148FBE73D4A403211681F231B23
:10593000029943000208431060704738484038001D
:1059400069000A401CC0B270472F4910B580390861
:1059500071C87DFEF761FF10BD2B488038817C81C6
:1059600077C17AC1778030C26A0000D60080816A30
:1059700042630163704725488038817F8174C17F0D
:10598000C1728030426B016BC262816270471F49F5
:105990000120803988742948407DC87201211B4844
:1059A0000022C26281627047002805D0002903D01E
:1059B000174A803A916650667047002805D0002942
:1059C00003D0124A803A1167D066704715484038B4
:1059D0000069C00101D41A48704719482C3070473B
:1059E0000B49012080398875704770B5FFF70000BA
:1059F000D70080EEFF0446FFF7A5FF0146054828C3
:105A0000256038837A00226B43054D0B205D1929F0
:105A1000E00000F0010020F7660000ECF10000E873
:105A2000F2000000001F4040001E4000431F4000E5
:105A3000401F4055560000000D0020B8F200004005
:105A40000F0020BC17002000801F402E181A23F3DF
:105A500056002B07DB8300E3581E0CDBB2F31893D0
:105A60004200D91A46401EF0D26420504306F0EF9F
:105A7000FCFE4C0000D8008001B2E079814201DBDD
:105A8000E17105E0012801D9401E00E00020E0712D
:105A9000F849606D0861F749F74840310861A08E08
:105AA000FEF772FE0120A07570BD70B5F04C054682
:105AB0002079002802D00020FFF74EFFFFF7EBFC13
:105AC000EC49086960650869C722120590430861BE
:105AD00008690322120510430861E5492031C8799D
